:100000000C9472000C9493000C9493000C94930045
:100010000C9493000C9493000C9493000C94930014
:100020000C9493000C9493000C9493000C94930004
:100030000C9493000C9493000C9493000C949300F4
:100040000C9493000C9493000C9493000C949300E4
:100050000C9493000C9493000C9493000C949300D4
:100060000C9493000C9493000C9493000C949300C4
:100070000C9493000C9493000C9493000C949300B4
:100080000C9493000C9493000C9493000C949300A4
:100090000C9493000C9493000C9493000C94930094
:1000A0000C9493000C9493000C9493000C94930084
:1000B0000C9493000C9493000C9493000C94930074
:1000C0000C9493000C9493000C9493000C94930064
:1000D0000C9493000C9493000C9493000C94930054
:1000E0000C94930011241FBECFEFD1E2DEBFCDBF31
:1000F00000E00CBF12E0A0E0B2E0EEE6F3E000E0CA
:100100000BBF02C007900D92A430B107D9F722E0CF
:10011000A4E0B2E001C01D92A731B207E1F70E944E
:10012000AF010C94B5010C940000EAE7F0E0808187
:1001300086608083ACE7B0E08C918F7D8C938C914E
:1001400090911202892B80648C93808180688083D7
:10015000089590917C00907E90937C0090917C001B
:10016000892B80937C0080917A00806480937A0050
:1001700080917A0084FFFCCF80917A008061809327
:100180007A0090E080E00895CF93DF9367E780E006
:100190000E94A900EC0168E680E00E94A9008C0F93
:1001A0009D1F90930F0280930E0267E781E00E94EB
:1001B000A900EC0168E681E00E94A9008C0F9D1F58
:1001C000909316028093150267E782E00E94A900CF
:1001D000EC0168E682E00E94A9008C0F9D1F9093BD
:1001E0000D0280930C0240910E0250910F0220915B
:1001F000000230910102C0910802D0910902421719
:10020000530768F450930102409300029A012C0FA7
:100210003D1F3695279530930502209304022091C7
:10022000150230911602A0910A02B0910B02609162
:100230000202709103022617370768F43093030215
:1002400020930202B9016A0F7B1F76956795709320
:10025000070260930602E0910C02F0910D0260919A
:100260000402709105028617970768F490930502BF
:1002700080930402BC016E0F7F1F76956795709383
:10028000090260930802C417D50780F4509309024D
:10029000409308026091000270910102460F571FBF
:1002A000569547955093050240930402A217B30751
:1002B00080F430930B0220930A0240910202509185
:1002C0000302240F351F369527953093070220939C
:1002D0000602E817F90780F490930D0280930C0250
:1002E0002091040230910502820F931F9695879505
:1002F0009093090280930802DF91CF910895809135
:100300000C0290910D0240910C0250910D0220912F
:100310000402309105028217930768F49093050256
:10032000809304029C01240F351F36952795309346
:100330000902209308024817590780F490930D0290
:1003400080930C022091040230910502820F931FCA
:1003500096958795909309028093080208950E94CC
:0E03600095008FEF81B982B9FFCFF894FFCFDF
:04036E00FF03FF0387
:00000001FF
